{
  "_format": "hh-sol-artifact-1",
  "contractName": "KGISLCollegeToken",
  "sourceName": "contracts/KGISLCollegeToken.sol",
  "abi": [
    {
      "inputs": [
        {
          "internalType": "address",
          "name": "_backend",
          "type": "address"
        }
      ],
      "stateMutability": "nonpayable",
      "type": "constructor"
    },
    {
      "anonymous": false,
      "inputs": [
        {
          "indexed": true,
          "internalType": "address",
          "name": "to",
          "type": "address"
        },
        {
          "indexed": false,
          "internalType": "uint256",
          "name": "amount",
          "type": "uint256"
        }
      ],
      "name": "Mint",
      "type": "event"
    },
    {
      "anonymous": false,
      "inputs": [
        {
          "indexed": false,
          "internalType": "address",
          "name": "student",
          "type": "address"
        }
      ],
      "name": "StudentRegistered",
      "type": "event"
    },
    {
      "anonymous": false,
      "inputs": [
        {
          "indexed": true,
          "internalType": "address",
          "name": "from",
          "type": "address"
        },
        {
          "indexed": true,
          "internalType": "address",
          "name": "to",
          "type": "address"
        },
        {
          "indexed": false,
          "internalType": "uint256",
          "name": "amount",
          "type": "uint256"
        }
      ],
      "name": "Transfer",
      "type": "event"
    },
    {
      "anonymous": false,
      "inputs": [
        {
          "indexed": false,
          "internalType": "address",
          "name": "vendor",
          "type": "address"
        }
      ],
      "name": "VendorRegistered",
      "type": "event"
    },
    {
      "inputs": [],
      "name": "admin",
      "outputs": [
        {
          "internalType": "address",
          "name": "",
          "type": "address"
        }
      ],
      "stateMutability": "view",
      "type": "function"
    },
    {
      "inputs": [],
      "name": "backend",
      "outputs": [
        {
          "internalType": "address",
          "name": "",
          "type": "address"
        }
      ],
      "stateMutability": "view",
      "type": "function"
    },
    {
      "inputs": [
        {
          "internalType": "address",
          "name": "",
          "type": "address"
        }
      ],
      "name": "balanceOf",
      "outputs": [
        {
          "internalType": "uint256",
          "name": "",
          "type": "uint256"
        }
      ],
      "stateMutability": "view",
      "type": "function"
    },
    {
      "inputs": [],
      "name": "decimals",
      "outputs": [
        {
          "internalType": "uint8",
          "name": "",
          "type": "uint8"
        }
      ],
      "stateMutability": "view",
      "type": "function"
    },
    {
      "inputs": [
        {
          "internalType": "address",
          "name": "user",
          "type": "address"
        }
      ],
      "name": "getBalance",
      "outputs": [
        {
          "internalType": "uint256",
          "name": "",
          "type": "uint256"
        }
      ],
      "stateMutability": "view",
      "type": "function"
    },
    {
      "inputs": [
        {
          "internalType": "address",
          "name": "",
          "type": "address"
        }
      ],
      "name": "isStudent",
      "outputs": [
        {
          "internalType": "bool",
          "name": "",
          "type": "bool"
        }
      ],
      "stateMutability": "view",
      "type": "function"
    },
    {
      "inputs": [
        {
          "internalType": "address",
          "name": "",
          "type": "address"
        }
      ],
      "name": "isVendor",
      "outputs": [
        {
          "internalType": "bool",
          "name": "",
          "type": "bool"
        }
      ],
      "stateMutability": "view",
      "type": "function"
    },
    {
      "inputs": [
        {
          "internalType": "address",
          "name": "student",
          "type": "address"
        },
        {
          "internalType": "uint256",
          "name": "amount",
          "type": "uint256"
        }
      ],
      "name": "mint",
      "outputs": [],
      "stateMutability": "nonpayable",
      "type": "function"
    },
    {
      "inputs": [],
      "name": "name",
      "outputs": [
        {
          "internalType": "string",
          "name": "",
          "type": "string"
        }
      ],
      "stateMutability": "view",
      "type": "function"
    },
    {
      "inputs": [
        {
          "internalType": "address",
          "name": "student",
          "type": "address"
        }
      ],
      "name": "registerStudent",
      "outputs": [],
      "stateMutability": "nonpayable",
      "type": "function"
    },
    {
      "inputs": [
        {
          "internalType": "address",
          "name": "vendor",
          "type": "address"
        }
      ],
      "name": "registerVendor",
      "outputs": [],
      "stateMutability": "nonpayable",
      "type": "function"
    },
    {
      "inputs": [
        {
          "internalType": "address",
          "name": "student",
          "type": "address"
        },
        {
          "internalType": "address",
          "name": "vendor",
          "type": "address"
        },
        {
          "internalType": "uint256",
          "name": "amount",
          "type": "uint256"
        }
      ],
      "name": "studentSpend",
      "outputs": [],
      "stateMutability": "nonpayable",
      "type": "function"
    },
    {
      "inputs": [],
      "name": "symbol",
      "outputs": [
        {
          "internalType": "string",
          "name": "",
          "type": "string"
        }
      ],
      "stateMutability": "view",
      "type": "function"
    },
    {
      "inputs": [],
      "name": "totalSupply",
      "outputs": [
        {
          "internalType": "uint256",
          "name": "",
          "type": "uint256"
        }
      ],
      "stateMutability": "view",
      "type": "function"
    },
    {
      "inputs": [
        {
          "internalType": "address",
          "name": "vendor",
          "type": "address"
        },
        {
          "internalType": "uint256",
          "name": "amount",
          "type": "uint256"
        }
      ],
      "name": "vendorPayAdmin",
      "outputs": [],
      "stateMutability": "nonpayable",
      "type": "function"
    }
  ],
  "bytecode": "0x60806040526040518060400160405280601381526020017f4b4749534c20436f6c6c65676520546f6b656e00000000000000000000000000815250600090816200004a919062000456565b506040518060400160405280600481526020017f4b474354000000000000000000000000000000000000000000000000000000008152506001908162000091919062000456565b506012600260006101000a81548160ff021916908360ff160217905550348015620000bb57600080fd5b5060405162002316380380620023168339818101604052810190620000e19190620005a7565b600073ffffffffffffffffffffffffffffffffffffffff168173ffffffffffffffffffffffffffffffffffffffff160362000153576040517f08c379a00000000000000000000000000000000000000000000000000000000081526004016200014a906200063a565b60405180910390fd5b33600460006101000a81548173ffffffffffffffffffffffffffffffffffffffff021916908373ffffffffffffffffffffffffffffffffffffffff16021790555080600560006101000a81548173ffffffffffffffffffffffffffffffffffffffff021916908373ffffffffffffffffffffffffffffffffffffffff160217905550506200065c565b600081519050919050565b7f4e487b7100000000000000000000000000000000000000000000000000000000600052604160045260246000fd5b7f4e487b7100000000000000000000000000000000000000000000000000000000600052602260045260246000fd5b600060028204905060018216806200025e57607f821691505b60208210810362000274576200027362000216565b5b50919050565b60008190508160005260206000209050919050565b60006020601f8301049050919050565b600082821b905092915050565b600060088302620002de7fffffffffffffffffffffffffffffffffffffffffffffffffffffffffffffffff826200029f565b620002ea86836200029f565b95508019841693508086168417925050509392505050565b6000819050919050565b6000819050919050565b600062000337620003316200032b8462000302565b6200030c565b62000302565b9050919050565b6000819050919050565b620003538362000316565b6200036b62000362826200033e565b848454620002ac565b825550505050565b600090565b6200038262000373565b6200038f81848462000348565b505050565b5b81811015620003b757620003ab60008262000378565b60018101905062000395565b5050565b601f8211156200040657620003d0816200027a565b620003db846200028f565b81016020851015620003eb578190505b62000403620003fa856200028f565b83018262000394565b50505b505050565b600082821c905092915050565b60006200042b600019846008026200040b565b1980831691505092915050565b600062000446838362000418565b9150826002028217905092915050565b6200046182620001dc565b67ffffffffffffffff8111156200047d576200047c620001e7565b5b62000489825462000245565b62000496828285620003bb565b600060209050601f831160018114620004ce5760008415620004b9578287015190505b620004c5858262000438565b86555062000535565b601f198416620004de866200027a565b60005b828110156200050857848901518255600182019150602085019450602081019050620004e1565b8683101562000528578489015162000524601f89168262000418565b8355505b6001600288020188555050505b505050505050565b600080fd5b600073ffffffffffffffffffffffffffffffffffffffff82169050919050565b60006200056f8262000542565b9050919050565b620005818162000562565b81146200058d57600080fd5b50565b600081519050620005a18162000576565b92915050565b600060208284031215620005c057620005bf6200053d565b5b6000620005d08482850162000590565b91505092915050565b600082825260208201905092915050565b7f496e76616c6964206261636b656e640000000000000000000000000000000000600082015250565b600062000622600f83620005d9565b91506200062f82620005ea565b602082019050919050565b60006020820190508181036000830152620006558162000613565b9050919050565b611caa806200066c6000396000f3fe608060405234801561001057600080fd5b50600436106100f55760003560e01c806370a0823111610097578063c7573e8211610066578063c7573e8214610260578063ee54d54f1461027c578063f851a440146102ac578063f8b2cb4f146102ca576100f5565b806370a08231146101c657806382f7d392146101f657806395d89b4114610226578063a6fea6f414610244576100f5565b806318160ddd116100d357806318160ddd14610152578063313ce5671461017057806340c10f191461018e57806341af6430146101aa576100f5565b806305c1bc5b146100fa57806306fdde0314610116578063099e413314610134575b600080fd5b610114600480360381019061010f9190611352565b6102fa565b005b61011e6106a9565b60405161012b9190611435565b60405180910390f35b61013c610737565b6040516101499190611466565b60405180910390f35b61015a61075d565b6040516101679190611490565b60405180910390f35b610178610763565b60405161018591906114c7565b60405180910390f35b6101a860048036038101906101a391906114e2565b610776565b005b6101c460048036038101906101bf91906114e2565b6109c2565b005b6101e060048036038101906101db9190611522565b610d28565b6040516101ed9190611490565b60405180910390f35b610210600480360381019061020b9190611522565b610d40565b60405161021d919061156a565b60405180910390f35b61022e610d60565b60405161023b9190611435565b60405180910390f35b61025e60048036038101906102599190611522565b610dee565b005b61027a60048036038101906102759190611522565b61100c565b005b61029660048036038101906102919190611522565b61122a565b6040516102a3919061156a565b60405180910390f35b6102b461124a565b6040516102c19190611466565b60405180910390f35b6102e460048036038101906102df9190611522565b611270565b6040516102f19190611490565b60405180910390f35b600560009054906101000a900473ffffffffffffffffffffffffffffffffffffffff1673ffffffffffffffffffffffffffffffffffffffff163373ffffffffffffffffffffffffffffffffffffffff161461038a576040517f08c379a0000000000000000000000000000000000000000000000000000000008152600401610381906115d1565b60405180910390fd5b600760008473ffffffffffffffffffffffffffffffffffffffff1673ffffffffffffffffffffffffffffffffffffffff16815260200190815260200160002060009054906101000a900460ff16610416576040517f08c379a000000000000000000000000000000000000000000000000000000000815260040161040d9061163d565b60405180910390fd5b600860008373ffffffffffffffffffffffffffffffffffffffff1673ffffffffffffffffffffffffffffffffffffffff16815260200190815260200160002060009054906101000a900460ff166104a2576040517f08c379a0000000000000000000000000000000000000000000000000000000008152600401610499906116a9565b60405180910390fd5b600081116104e5576040517f08c379a00000000000000000000000000000000000000000000000000000000081526004016104dc90611715565b60405180910390fd5b6000600260009054906101000a900460ff16600a6105039190611897565b8261050e91906118e2565b905080600660008673ffffffffffffffffffffffffffffffffffffffff1673ffffffffffffffffffffffffffffffffffffffff168152602001908152602001600020541015610592576040517f08c379a000000000000000000000000000000000000000000000000000000000815260040161058990611970565b60405180910390fd5b80600660008673ffffffffffffffffffffffffffffffffffffffff1673ffffffffffffffffffffffffffffffffffffffff16815260200190815260200160002060008282546105e19190611990565b9250508190555080600660008573ffffffffffffffffffffffffffffffffffffffff1673ffffffffffffffffffffffffffffffffffffffff168152602001908152602001600020600082825461063791906119c4565b925050819055508273ffffffffffffffffffffffffffffffffffffffff168473ffffffffffffffffffffffffffffffffffffffff167fddf252ad1be2c89b69c2b068fc378daa952ba7f163c4a11628f55a4df523b3ef8360405161069b9190611490565b60405180910390a350505050565b600080546106b690611a27565b80601f01602080910402602001604051908101604052809291908181526020018280546106e290611a27565b801561072f5780601f106107045761010080835404028352916020019161072f565b820191906000526020600020905b81548152906001019060200180831161071257829003601f168201915b505050505081565b600560009054906101000a900473ffffffffffffffffffffffffffffffffffffffff1681565b60035481565b600260009054906101000a900460ff1681565b600460009054906101000a900473ffffffffffffffffffffffffffffffffffffffff1673ffffffffffffffffffffffffffffffffffffffff163373ffffffffffffffffffffffffffffffffffffffff1614610806576040517f08c379a00000000000000000000000000000000000000000000000000000000081526004016107fd90611aa4565b60405180910390fd5b600760008373ffffffffffffffffffffffffffffffffffffffff1673ffffffffffffffffffffffffffffffffffffffff16815260200190815260200160002060009054906101000a900460ff16610892576040517f08c379a000000000000000000000000000000000000000000000000000000000815260040161088990611b10565b60405180910390fd5b600081116108d5576040517f08c379a00000000000000000000000000000000000000000000000000000000081526004016108cc90611715565b60405180910390fd5b6000600260009054906101000a900460ff16600a6108f39190611897565b826108fe91906118e2565b905080600660008573ffffffffffffffffffffffffffffffffffffffff1673ffffffffffffffffffffffffffffffffffffffff168152602001908152602001600020600082825461094f91906119c4565b92505081905550806003600082825461096891906119c4565b925050819055508273ffffffffffffffffffffffffffffffffffffffff167f0f6798a560793a54c3bcfe86a93cde1e73087d944c0ea20544137d4121396885826040516109b59190611490565b60405180910390a2505050565b600560009054906101000a900473ffffffffffffffffffffffffffffffffffffffff1673ffffffffffffffffffffffffffffffffffffffff163373ffffffffffffffffffffffffffffffffffffffff1614610a52576040517f08c379a0000000000000000000000000000000000000000000000000000000008152600401610a49906115d1565b60405180910390fd5b600860008373ffffffffffffffffffffffffffffffffffffffff1673ffffffffffffffffffffffffffffffffffffffff16815260200190815260200160002060009054906101000a900460ff16610ade576040517f08c379a0000000000000000000000000000000000000000000000000000000008152600401610ad5906116a9565b60405180910390fd5b60008111610b21576040517f08c379a0000000000000000000000000000000000000000000000000000000008152600401610b1890611715565b60405180910390fd5b6000600260009054906101000a900460ff16600a610b3f9190611897565b82610b4a91906118e2565b905080600660008573ffffffffffffffffffffffffffffffffffffffff1673ffffffffffffffffffffffffffffffffffffffff168152602001908152602001600020541015610bce576040517f08c379a0000000000000000000000000000000000000000000000000000000008152600401610bc590611970565b60405180910390fd5b80600660008573ffffffffffffffffffffffffffffffffffffffff1673ffffffffffffffffffffffffffffffffffffffff1681526020019081526020016000206000828254610c1d9190611990565b925050819055508060066000600460009054906101000a900473ffffffffffffffffffffffffffffffffffffffff1673ffffffffffffffffffffffffffffffffffffffff1673ffffffffffffffffffffffffffffffffffffffff1681526020019081526020016000206000828254610c9591906119c4565b92505081905550600460009054906101000a900473ffffffffffffffffffffffffffffffffffffffff1673ffffffffffffffffffffffffffffffffffffffff168373ffffffffffffffffffffffffffffffffffffffff167fddf252ad1be2c89b69c2b068fc378daa952ba7f163c4a11628f55a4df523b3ef83604051610d1b9190611490565b60405180910390a3505050565b60066020528060005260406000206000915090505481565b60076020528060005260406000206000915054906101000a900460ff1681565b60018054610d6d90611a27565b80601f0160208091040260200160405190810160405280929190818152602001828054610d9990611a27565b8015610de65780601f10610dbb57610100808354040283529160200191610de6565b820191906000526020600020905b815481529060010190602001808311610dc957829003601f168201915b505050505081565b600460009054906101000a900473ffffffffffffffffffffffffffffffffffffffff1673ffffffffffffffffffffffffffffffffffffffff163373ffffffffffffffffffffffffffffffffffffffff1614610e7e576040517f08c379a0000000000000000000000000000000000000000000000000000000008152600401610e7590611aa4565b60405180910390fd5b600073ffffffffffffffffffffffffffffffffffffffff168173ffffffffffffffffffffffffffffffffffffffff1603610eed576040517f08c379a0000000000000000000000000000000000000000000000000000000008152600401610ee490611b7c565b60405180910390fd5b600860008273ffffffffffffffffffffffffffffffffffffffff1673ffffffffffffffffffffffffffffffffffffffff16815260200190815260200160002060009054906101000a900460ff1615610f7a576040517f08c379a0000000000000000000000000000000000000000000000000000000008152600401610f7190611be8565b60405180910390fd5b6001600860008373ffffffffffffffffffffffffffffffffffffffff1673ffffffffffffffffffffffffffffffffffffffff16815260200190815260200160002060006101000a81548160ff0219169083151502179055507f6b151c6084a25b1831f4322980152980cbe16e87815c95af76a1ef3b1255ec48816040516110019190611466565b60405180910390a150565b600460009054906101000a900473ffffffffffffffffffffffffffffffffffffffff1673ffffffffffffffffffffffffffffffffffffffff163373ffffffffffffffffffffffffffffffffffffffff161461109c576040517f08c379a000000000000000000000000000000000000000000000000000000000815260040161109390611aa4565b60405180910390fd5b600073ffffffffffffffffffffffffffffffffffffffff168173ffffffffffffffffffffffffffffffffffffffff160361110b576040517f08c379a000000000000000000000000000000000000000000000000000000000815260040161110290611b7c565b60405180910390fd5b600760008273ffffffffffffffffffffffffffffffffffffffff1673ffffffffffffffffffffffffffffffffffffffff16815260200190815260200160002060009054906101000a900460ff1615611198576040517f08c379a000000000000000000000000000000000000000000000000000000000815260040161118f90611c54565b60405180910390fd5b6001600760008373ffffffffffffffffffffffffffffffffffffffff1673ffffffffffffffffffffffffffffffffffffffff16815260200190815260200160002060006101000a81548160ff0219169083151502179055507f413281c709cf2c555b5d6d90e43f841b9ed7d34daa82e221aedbb3773082fcc88160405161121f9190611466565b60405180910390a150565b60086020528060005260406000206000915054906101000a900460ff1681565b600460009054906101000a900473ffffffffffffffffffffffffffffffffffffffff1681565b6000600660008373ffffffffffffffffffffffffffffffffffffffff1673ffffffffffffffffffffffffffffffffffffffff168152602001908152602001600020549050919050565b600080fd5b600073ffffffffffffffffffffffffffffffffffffffff82169050919050565b60006112e9826112be565b9050919050565b6112f9816112de565b811461130457600080fd5b50565b600081359050611316816112f0565b92915050565b6000819050919050565b61132f8161131c565b811461133a57600080fd5b50565b60008135905061134c81611326565b92915050565b60008060006060848603121561136b5761136a6112b9565b5b600061137986828701611307565b935050602061138a86828701611307565b925050604061139b8682870161133d565b9150509250925092565b600081519050919050565b600082825260208201905092915050565b60005b838110156113df5780820151818401526020810190506113c4565b60008484015250505050565b6000601f19601f8301169050919050565b6000611407826113a5565b61141181856113b0565b93506114218185602086016113c1565b61142a816113eb565b840191505092915050565b6000602082019050818103600083015261144f81846113fc565b905092915050565b611460816112de565b82525050565b600060208201905061147b6000830184611457565b92915050565b61148a8161131c565b82525050565b60006020820190506114a56000830184611481565b92915050565b600060ff82169050919050565b6114c1816114ab565b82525050565b60006020820190506114dc60008301846114b8565b92915050565b600080604083850312156114f9576114f86112b9565b5b600061150785828601611307565b92505060206115188582860161133d565b9150509250929050565b600060208284031215611538576115376112b9565b5b600061154684828501611307565b91505092915050565b60008115159050919050565b6115648161154f565b82525050565b600060208201905061157f600083018461155b565b92915050565b7f4f6e6c79206261636b656e640000000000000000000000000000000000000000600082015250565b60006115bb600c836113b0565b91506115c682611585565b602082019050919050565b600060208201905081810360008301526115ea816115ae565b9050919050565b7f496e76616c69642073747564656e740000000000000000000000000000000000600082015250565b6000611627600f836113b0565b9150611632826115f1565b602082019050919050565b600060208201905081810360008301526116568161161a565b9050919050565b7f496e76616c69642076656e646f72000000000000000000000000000000000000600082015250565b6000611693600e836113b0565b915061169e8261165d565b602082019050919050565b600060208201905081810360008301526116c281611686565b9050919050565b7f496e76616c696420616d6f756e74000000000000000000000000000000000000600082015250565b60006116ff600e836113b0565b915061170a826116c9565b602082019050919050565b6000602082019050818103600083015261172e816116f2565b9050919050565b7f4e487b7100000000000000000000000000000000000000000000000000000000600052601160045260246000fd5b60008160011c9050919050565b6000808291508390505b60018511156117bb5780860481111561179757611796611735565b5b60018516156117a65780820291505b80810290506117b485611764565b945061177b565b94509492505050565b6000826117d45760019050611890565b816117e25760009050611890565b81600181146117f8576002811461180257611831565b6001915050611890565b60ff84111561181457611813611735565b5b8360020a91508482111561182b5761182a611735565b5b50611890565b5060208310610133831016604e8410600b84101617156118665782820a90508381111561186157611860611735565b5b611890565b6118738484846001611771565b9250905081840481111561188a57611889611735565b5b81810290505b9392505050565b60006118a28261131c565b91506118ad836114ab565b92506118da7fffffffffffffffffffffffffffffffffffffffffffffffffffffffffffffffff84846117c4565b905092915050565b60006118ed8261131c565b91506118f88361131c565b92508282026119068161131c565b9150828204841483151761191d5761191c611735565b5b5092915050565b7f496e73756666696369656e742062616c616e6365000000000000000000000000600082015250565b600061195a6014836113b0565b915061196582611924565b602082019050919050565b600060208201905081810360008301526119898161194d565b9050919050565b600061199b8261131c565b91506119a68361131c565b92508282039050818111156119be576119bd611735565b5b92915050565b60006119cf8261131c565b91506119da8361131c565b92508282019050808211156119f2576119f1611735565b5b92915050565b7f4e487b7100000000000000000000000000000000000000000000000000000000600052602260045260246000fd5b60006002820490506001821680611a3f57607f821691505b602082108103611a5257611a516119f8565b5b50919050565b7f4f6e6c792061646d696e00000000000000000000000000000000000000000000600082015250565b6000611a8e600a836113b0565b9150611a9982611a58565b602082019050919050565b60006020820190508181036000830152611abd81611a81565b9050919050565b7f4e6f742073747564656e74000000000000000000000000000000000000000000600082015250565b6000611afa600b836113b0565b9150611b0582611ac4565b602082019050919050565b60006020820190508181036000830152611b2981611aed565b9050919050565b7f496e76616c696420616464726573730000000000000000000000000000000000600082015250565b6000611b66600f836113b0565b9150611b7182611b30565b602082019050919050565b60006020820190508181036000830152611b9581611b59565b9050919050565b7f416c72656164792076656e646f72000000000000000000000000000000000000600082015250565b6000611bd2600e836113b0565b9150611bdd82611b9c565b602082019050919050565b60006020820190508181036000830152611c0181611bc5565b9050919050565b7f416c72656164792073747564656e740000000000000000000000000000000000600082015250565b6000611c3e600f836113b0565b9150611c4982611c08565b602082019050919050565b60006020820190508181036000830152611c6d81611c31565b905091905056fea2646970667358221220a36cdaab38343fb8bf5ed5d28bb19f4df3fbb60c95bfd9a22d231657cd7283b364736f6c63430008140033",
  "linkReferences": {},
  "deployedLinkReferences": {}
}