{
  "_format": "hh-sol-artifact-1",
  "contractName": "KGISLCollegeToken",
  "sourceName": "contracts/KGISLCollegeToken.sol",
  "abi": [
    {
      "inputs": [
        {
          "internalType": "address",
          "name": "_backend",
          "type": "address"
        }
      ],
      "stateMutability": "nonpayable",
      "type": "constructor"
    },
    {
      "anonymous": false,
      "inputs": [
        {
          "indexed": true,
          "internalType": "address",
          "name": "to",
          "type": "address"
        },
        {
          "indexed": false,
          "internalType": "uint256",
          "name": "amount",
          "type": "uint256"
        }
      ],
      "name": "Mint",
      "type": "event"
    },
    {
      "anonymous": false,
      "inputs": [
        {
          "indexed": false,
          "internalType": "address",
          "name": "student",
          "type": "address"
        }
      ],
      "name": "StudentRegistered",
      "type": "event"
    },
    {
      "anonymous": false,
      "inputs": [
        {
          "indexed": true,
          "internalType": "address",
          "name": "from",
          "type": "address"
        },
        {
          "indexed": true,
          "internalType": "address",
          "name": "to",
          "type": "address"
        },
        {
          "indexed": false,
          "internalType": "uint256",
          "name": "amount",
          "type": "uint256"
        }
      ],
      "name": "Transfer",
      "type": "event"
    },
    {
      "anonymous": false,
      "inputs": [
        {
          "indexed": false,
          "internalType": "address",
          "name": "vendor",
          "type": "address"
        }
      ],
      "name": "VendorRegistered",
      "type": "event"
    },
    {
      "inputs": [],
      "name": "admin",
      "outputs": [
        {
          "internalType": "address",
          "name": "",
          "type": "address"
        }
      ],
      "stateMutability": "view",
      "type": "function"
    },
    {
      "inputs": [
        {
          "internalType": "address",
          "name": "student",
          "type": "address"
        },
        {
          "internalType": "uint256",
          "name": "amount",
          "type": "uint256"
        }
      ],
      "name": "adminSendToStudent",
      "outputs": [],
      "stateMutability": "nonpayable",
      "type": "function"
    },
    {
      "inputs": [],
      "name": "backend",
      "outputs": [
        {
          "internalType": "address",
          "name": "",
          "type": "address"
        }
      ],
      "stateMutability": "view",
      "type": "function"
    },
    {
      "inputs": [
        {
          "internalType": "address",
          "name": "",
          "type": "address"
        }
      ],
      "name": "balanceOf",
      "outputs": [
        {
          "internalType": "uint256",
          "name": "",
          "type": "uint256"
        }
      ],
      "stateMutability": "view",
      "type": "function"
    },
    {
      "inputs": [],
      "name": "decimals",
      "outputs": [
        {
          "internalType": "uint8",
          "name": "",
          "type": "uint8"
        }
      ],
      "stateMutability": "view",
      "type": "function"
    },
    {
      "inputs": [
        {
          "internalType": "address",
          "name": "user",
          "type": "address"
        }
      ],
      "name": "getBalance",
      "outputs": [
        {
          "internalType": "uint256",
          "name": "",
          "type": "uint256"
        }
      ],
      "stateMutability": "view",
      "type": "function"
    },
    {
      "inputs": [
        {
          "internalType": "address",
          "name": "",
          "type": "address"
        }
      ],
      "name": "isStudent",
      "outputs": [
        {
          "internalType": "bool",
          "name": "",
          "type": "bool"
        }
      ],
      "stateMutability": "view",
      "type": "function"
    },
    {
      "inputs": [
        {
          "internalType": "address",
          "name": "",
          "type": "address"
        }
      ],
      "name": "isVendor",
      "outputs": [
        {
          "internalType": "bool",
          "name": "",
          "type": "bool"
        }
      ],
      "stateMutability": "view",
      "type": "function"
    },
    {
      "inputs": [
        {
          "internalType": "address",
          "name": "student",
          "type": "address"
        },
        {
          "internalType": "uint256",
          "name": "amount",
          "type": "uint256"
        }
      ],
      "name": "mint",
      "outputs": [],
      "stateMutability": "nonpayable",
      "type": "function"
    },
    {
      "inputs": [],
      "name": "name",
      "outputs": [
        {
          "internalType": "string",
          "name": "",
          "type": "string"
        }
      ],
      "stateMutability": "view",
      "type": "function"
    },
    {
      "inputs": [
        {
          "internalType": "address",
          "name": "student",
          "type": "address"
        }
      ],
      "name": "registerStudent",
      "outputs": [],
      "stateMutability": "nonpayable",
      "type": "function"
    },
    {
      "inputs": [
        {
          "internalType": "address",
          "name": "vendor",
          "type": "address"
        }
      ],
      "name": "registerVendor",
      "outputs": [],
      "stateMutability": "nonpayable",
      "type": "function"
    },
    {
      "inputs": [
        {
          "internalType": "address",
          "name": "student",
          "type": "address"
        },
        {
          "internalType": "address",
          "name": "vendor",
          "type": "address"
        },
        {
          "internalType": "uint256",
          "name": "amount",
          "type": "uint256"
        }
      ],
      "name": "studentSpend",
      "outputs": [],
      "stateMutability": "nonpayable",
      "type": "function"
    },
    {
      "inputs": [],
      "name": "symbol",
      "outputs": [
        {
          "internalType": "string",
          "name": "",
          "type": "string"
        }
      ],
      "stateMutability": "view",
      "type": "function"
    },
    {
      "inputs": [],
      "name": "totalSupply",
      "outputs": [
        {
          "internalType": "uint256",
          "name": "",
          "type": "uint256"
        }
      ],
      "stateMutability": "view",
      "type": "function"
    },
    {
      "inputs": [
        {
          "internalType": "address",
          "name": "vendor",
          "type": "address"
        },
        {
          "internalType": "uint256",
          "name": "amount",
          "type": "uint256"
        }
      ],
      "name": "vendorPayAdmin",
      "outputs": [],
      "stateMutability": "nonpayable",
      "type": "function"
    }
  ],
  "bytecode": "0x60806040526040518060400160405280601381526020017f4b4749534c20436f6c6c65676520546f6b656e00000000000000000000000000815250600090816200004a919062000456565b506040518060400160405280600481526020017f4b474354000000000000000000000000000000000000000000000000000000008152506001908162000091919062000456565b506012600260006101000a81548160ff021916908360ff160217905550348015620000bb57600080fd5b50604051620026ab380380620026ab8339818101604052810190620000e19190620005a7565b600073ffffffffffffffffffffffffffffffffffffffff168173ffffffffffffffffffffffffffffffffffffffff160362000153576040517f08c379a00000000000000000000000000000000000000000000000000000000081526004016200014a906200063a565b60405180910390fd5b33600460006101000a81548173ffffffffffffffffffffffffffffffffffffffff021916908373ffffffffffffffffffffffffffffffffffffffff16021790555080600560006101000a81548173ffffffffffffffffffffffffffffffffffffffff021916908373ffffffffffffffffffffffffffffffffffffffff160217905550506200065c565b600081519050919050565b7f4e487b7100000000000000000000000000000000000000000000000000000000600052604160045260246000fd5b7f4e487b7100000000000000000000000000000000000000000000000000000000600052602260045260246000fd5b600060028204905060018216806200025e57607f821691505b60208210810362000274576200027362000216565b5b50919050565b60008190508160005260206000209050919050565b60006020601f8301049050919050565b600082821b905092915050565b600060088302620002de7fffffffffffffffffffffffffffffffffffffffffffffffffffffffffffffffff826200029f565b620002ea86836200029f565b95508019841693508086168417925050509392505050565b6000819050919050565b6000819050919050565b600062000337620003316200032b8462000302565b6200030c565b62000302565b9050919050565b6000819050919050565b620003538362000316565b6200036b62000362826200033e565b848454620002ac565b825550505050565b600090565b6200038262000373565b6200038f81848462000348565b505050565b5b81811015620003b757620003ab60008262000378565b60018101905062000395565b5050565b601f8211156200040657620003d0816200027a565b620003db846200028f565b81016020851015620003eb578190505b62000403620003fa856200028f565b83018262000394565b50505b505050565b600082821c905092915050565b60006200042b600019846008026200040b565b1980831691505092915050565b600062000446838362000418565b9150826002028217905092915050565b6200046182620001dc565b67ffffffffffffffff8111156200047d576200047c620001e7565b5b62000489825462000245565b62000496828285620003bb565b600060209050601f831160018114620004ce5760008415620004b9578287015190505b620004c5858262000438565b86555062000535565b601f198416620004de866200027a565b60005b828110156200050857848901518255600182019150602085019450602081019050620004e1565b8683101562000528578489015162000524601f89168262000418565b8355505b6001600288020188555050505b505050505050565b600080fd5b600073ffffffffffffffffffffffffffffffffffffffff82169050919050565b60006200056f8262000542565b9050919050565b620005818162000562565b81146200058d57600080fd5b50565b600081519050620005a18162000576565b92915050565b600060208284031215620005c057620005bf6200053d565b5b6000620005d08482850162000590565b91505092915050565b600082825260208201905092915050565b7f496e76616c6964206261636b656e640000000000000000000000000000000000600082015250565b600062000622600f83620005d9565b91506200062f82620005ea565b602082019050919050565b60006020820190508181036000830152620006558162000613565b9050919050565b61203f806200066c6000396000f3fe608060405234801561001057600080fd5b50600436106101005760003560e01c806382f7d39211610097578063c7573e8211610066578063c7573e8214610287578063ee54d54f146102a3578063f851a440146102d3578063f8b2cb4f146102f157610100565b806382f7d3921461020157806395d89b4114610231578063a6fea6f41461024f578063ac1092a41461026b57610100565b8063313ce567116100d3578063313ce5671461017b57806340c10f191461019957806341af6430146101b557806370a08231146101d157610100565b806305c1bc5b1461010557806306fdde0314610121578063099e41331461013f57806318160ddd1461015d575b600080fd5b61011f600480360381019061011a919061167b565b610321565b005b61012961068d565b604051610136919061175e565b60405180910390f35b61014761071b565b604051610154919061178f565b60405180910390f35b610165610741565b60405161017291906117b9565b60405180910390f35b610183610747565b60405161019091906117f0565b60405180910390f35b6101b360048036038101906101ae919061180b565b61075a565b005b6101cf60048036038101906101ca919061180b565b6109a6565b005b6101eb60048036038101906101e6919061184b565b610cc9565b6040516101f891906117b9565b60405180910390f35b61021b6004803603810190610216919061184b565b610ce1565b6040516102289190611893565b60405180910390f35b610239610d01565b604051610246919061175e565b60405180910390f35b6102696004803603810190610264919061184b565b610d8f565b005b6102856004803603810190610280919061180b565b610fad565b005b6102a1600480360381019061029c919061184b565b611335565b005b6102bd60048036038101906102b8919061184b565b611553565b6040516102ca9190611893565b60405180910390f35b6102db611573565b6040516102e8919061178f565b60405180910390f35b61030b6004803603810190610306919061184b565b611599565b60405161031891906117b9565b60405180910390f35b600560009054906101000a900473ffffffffffffffffffffffffffffffffffffffff1673ffffffffffffffffffffffffffffffffffffffff163373ffffffffffffffffffffffffffffffffffffffff16146103b1576040517f08c379a00000000000000000000000000000000000000000000000000000000081526004016103a8906118fa565b60405180910390fd5b600760008473ffffffffffffffffffffffffffffffffffffffff1673ffffffffffffffffffffffffffffffffffffffff16815260200190815260200160002060009054906101000a900460ff1661043d576040517f08c379a000000000000000000000000000000000000000000000000000000000815260040161043490611966565b60405180910390fd5b600860008373ffffffffffffffffffffffffffffffffffffffff1673ffffffffffffffffffffffffffffffffffffffff16815260200190815260200160002060009054906101000a900460ff166104c9576040517f08c379a00000000000000000000000000000000000000000000000000000000081526004016104c0906119d2565b60405180910390fd5b6000600260009054906101000a900460ff16600a6104e79190611b54565b826104f29190611b9f565b905080600660008673ffffffffffffffffffffffffffffffffffffffff1673ffffffffffffffffffffffffffffffffffffffff168152602001908152602001600020541015610576576040517f08c379a000000000000000000000000000000000000000000000000000000000815260040161056d90611c2d565b60405180910390fd5b80600660008673ffffffffffffffffffffffffffffffffffffffff1673ffffffffffffffffffffffffffffffffffffffff16815260200190815260200160002060008282546105c59190611c4d565b9250508190555080600660008573ffffffffffffffffffffffffffffffffffffffff1673ffffffffffffffffffffffffffffffffffffffff168152602001908152602001600020600082825461061b9190611c81565b925050819055508273ffffffffffffffffffffffffffffffffffffffff168473ffffffffffffffffffffffffffffffffffffffff167fddf252ad1be2c89b69c2b068fc378daa952ba7f163c4a11628f55a4df523b3ef8360405161067f91906117b9565b60405180910390a350505050565b6000805461069a90611ce4565b80601f01602080910402602001604051908101604052809291908181526020018280546106c690611ce4565b80156107135780601f106106e857610100808354040283529160200191610713565b820191906000526020600020905b8154815290600101906020018083116106f657829003601f168201915b505050505081565b600560009054906101000a900473ffffffffffffffffffffffffffffffffffffffff1681565b60035481565b600260009054906101000a900460ff1681565b600460009054906101000a900473ffffffffffffffffffffffffffffffffffffffff1673ffffffffffffffffffffffffffffffffffffffff163373ffffffffffffffffffffffffffffffffffffffff16146107ea576040517f08c379a00000000000000000000000000000000000000000000000000000000081526004016107e190611d61565b60405180910390fd5b600760008373ffffffffffffffffffffffffffffffffffffffff1673ffffffffffffffffffffffffffffffffffffffff16815260200190815260200160002060009054906101000a900460ff16610876576040517f08c379a000000000000000000000000000000000000000000000000000000000815260040161086d90611dcd565b60405180910390fd5b600081116108b9576040517f08c379a00000000000000000000000000000000000000000000000000000000081526004016108b090611e39565b60405180910390fd5b6000600260009054906101000a900460ff16600a6108d79190611b54565b826108e29190611b9f565b905080600660008573ffffffffffffffffffffffffffffffffffffffff1673ffffffffffffffffffffffffffffffffffffffff16815260200190815260200160002060008282546109339190611c81565b92505081905550806003600082825461094c9190611c81565b925050819055508273ffffffffffffffffffffffffffffffffffffffff167f0f6798a560793a54c3bcfe86a93cde1e73087d944c0ea20544137d41213968858260405161099991906117b9565b60405180910390a2505050565b600560009054906101000a900473ffffffffffffffffffffffffffffffffffffffff1673ffffffffffffffffffffffffffffffffffffffff163373ffffffffffffffffffffffffffffffffffffffff1614610a36576040517f08c379a0000000000000000000000000000000000000000000000000000000008152600401610a2d906118fa565b60405180910390fd5b600860008373ffffffffffffffffffffffffffffffffffffffff1673ffffffffffffffffffffffffffffffffffffffff16815260200190815260200160002060009054906101000a900460ff16610ac2576040517f08c379a0000000000000000000000000000000000000000000000000000000008152600401610ab9906119d2565b60405180910390fd5b6000600260009054906101000a900460ff16600a610ae09190611b54565b82610aeb9190611b9f565b905080600660008573ffffffffffffffffffffffffffffffffffffffff1673ffffffffffffffffffffffffffffffffffffffff168152602001908152602001600020541015610b6f576040517f08c379a0000000000000000000000000000000000000000000000000000000008152600401610b6690611c2d565b60405180910390fd5b80600660008573ffffffffffffffffffffffffffffffffffffffff1673ffffffffffffffffffffffffffffffffffffffff1681526020019081526020016000206000828254610bbe9190611c4d565b925050819055508060066000600460009054906101000a900473ffffffffffffffffffffffffffffffffffffffff1673ffffffffffffffffffffffffffffffffffffffff1673ffffffffffffffffffffffffffffffffffffffff1681526020019081526020016000206000828254610c369190611c81565b92505081905550600460009054906101000a900473ffffffffffffffffffffffffffffffffffffffff1673ffffffffffffffffffffffffffffffffffffffff168373ffffffffffffffffffffffffffffffffffffffff167fddf252ad1be2c89b69c2b068fc378daa952ba7f163c4a11628f55a4df523b3ef83604051610cbc91906117b9565b60405180910390a3505050565b60066020528060005260406000206000915090505481565b60076020528060005260406000206000915054906101000a900460ff1681565b60018054610d0e90611ce4565b80601f0160208091040260200160405190810160405280929190818152602001828054610d3a90611ce4565b8015610d875780601f10610d5c57610100808354040283529160200191610d87565b820191906000526020600020905b815481529060010190602001808311610d6a57829003601f168201915b505050505081565b600460009054906101000a900473ffffffffffffffffffffffffffffffffffffffff1673ffffffffffffffffffffffffffffffffffffffff163373ffffffffffffffffffffffffffffffffffffffff1614610e1f576040517f08c379a0000000000000000000000000000000000000000000000000000000008152600401610e1690611d61565b60405180910390fd5b600073ffffffffffffffffffffffffffffffffffffffff168173ffffffffffffffffffffffffffffffffffffffff1603610e8e576040517f08c379a0000000000000000000000000000000000000000000000000000000008152600401610e8590611ea5565b60405180910390fd5b600860008273ffffffffffffffffffffffffffffffffffffffff1673ffffffffffffffffffffffffffffffffffffffff16815260200190815260200160002060009054906101000a900460ff1615610f1b576040517f08c379a0000000000000000000000000000000000000000000000000000000008152600401610f1290611f11565b60405180910390fd5b6001600860008373ffffffffffffffffffffffffffffffffffffffff1673ffffffffffffffffffffffffffffffffffffffff16815260200190815260200160002060006101000a81548160ff0219169083151502179055507f6b151c6084a25b1831f4322980152980cbe16e87815c95af76a1ef3b1255ec4881604051610fa2919061178f565b60405180910390a150565b600460009054906101000a900473ffffffffffffffffffffffffffffffffffffffff1673ffffffffffffffffffffffffffffffffffffffff163373ffffffffffffffffffffffffffffffffffffffff161461103d576040517f08c379a000000000000000000000000000000000000000000000000000000000815260040161103490611d61565b60405180910390fd5b600760008373ffffffffffffffffffffffffffffffffffffffff1673ffffffffffffffffffffffffffffffffffffffff16815260200190815260200160002060009054906101000a900460ff166110c9576040517f08c379a00000000000000000000000000000000000000000000000000000000081526004016110c090611dcd565b60405180910390fd5b6000811161110c576040517f08c379a000000000000000000000000000000000000000000000000000000000815260040161110390611e39565b60405180910390fd5b6000600260009054906101000a900460ff16600a61112a9190611b54565b826111359190611b9f565b90508060066000600460009054906101000a900473ffffffffffffffffffffffffffffffffffffffff1673ffffffffffffffffffffffffffffffffffffffff1673ffffffffffffffffffffffffffffffffffffffff1681526020019081526020016000205410156111db576040517f08c379a00000000000000000000000000000000000000000000000000000000081526004016111d290611f7d565b60405180910390fd5b8060066000600460009054906101000a900473ffffffffffffffffffffffffffffffffffffffff1673ffffffffffffffffffffffffffffffffffffffff1673ffffffffffffffffffffffffffffffffffffffff168152602001908152602001600020600082825461124c9190611c4d565b9250508190555080600660008573ffffffffffffffffffffffffffffffffffffffff1673ffffffffffffffffffffffffffffffffffffffff16815260200190815260200160002060008282546112a29190611c81565b925050819055508273ffffffffffffffffffffffffffffffffffffffff16600460009054906101000a900473ffffffffffffffffffffffffffffffffffffffff1673ffffffffffffffffffffffffffffffffffffffff167fddf252ad1be2c89b69c2b068fc378daa952ba7f163c4a11628f55a4df523b3ef8360405161132891906117b9565b60405180910390a3505050565b600460009054906101000a900473ffffffffffffffffffffffffffffffffffffffff1673ffffffffffffffffffffffffffffffffffffffff163373ffffffffffffffffffffffffffffffffffffffff16146113c5576040517f08c379a00000000000000000000000000000000000000000000000000000000081526004016113bc90611d61565b60405180910390fd5b600073ffffffffffffffffffffffffffffffffffffffff168173ffffffffffffffffffffffffffffffffffffffff1603611434576040517f08c379a000000000000000000000000000000000000000000000000000000000815260040161142b90611ea5565b60405180910390fd5b600760008273ffffffffffffffffffffffffffffffffffffffff1673ffffffffffffffffffffffffffffffffffffffff16815260200190815260200160002060009054906101000a900460ff16156114c1576040517f08c379a00000000000000000000000000000000000000000000000000000000081526004016114b890611fe9565b60405180910390fd5b6001600760008373ffffffffffffffffffffffffffffffffffffffff1673ffffffffffffffffffffffffffffffffffffffff16815260200190815260200160002060006101000a81548160ff0219169083151502179055507f413281c709cf2c555b5d6d90e43f841b9ed7d34daa82e221aedbb3773082fcc881604051611548919061178f565b60405180910390a150565b60086020528060005260406000206000915054906101000a900460ff1681565b600460009054906101000a900473ffffffffffffffffffffffffffffffffffffffff1681565b6000600660008373ffffffffffffffffffffffffffffffffffffffff1673ffffffffffffffffffffffffffffffffffffffff168152602001908152602001600020549050919050565b600080fd5b600073ffffffffffffffffffffffffffffffffffffffff82169050919050565b6000611612826115e7565b9050919050565b61162281611607565b811461162d57600080fd5b50565b60008135905061163f81611619565b92915050565b6000819050919050565b61165881611645565b811461166357600080fd5b50565b6000813590506116758161164f565b92915050565b600080600060608486031215611694576116936115e2565b5b60006116a286828701611630565b93505060206116b386828701611630565b92505060406116c486828701611666565b9150509250925092565b600081519050919050565b600082825260208201905092915050565b60005b838110156117085780820151818401526020810190506116ed565b60008484015250505050565b6000601f19601f8301169050919050565b6000611730826116ce565b61173a81856116d9565b935061174a8185602086016116ea565b61175381611714565b840191505092915050565b600060208201905081810360008301526117788184611725565b905092915050565b61178981611607565b82525050565b60006020820190506117a46000830184611780565b92915050565b6117b381611645565b82525050565b60006020820190506117ce60008301846117aa565b92915050565b600060ff82169050919050565b6117ea816117d4565b82525050565b600060208201905061180560008301846117e1565b92915050565b60008060408385031215611822576118216115e2565b5b600061183085828601611630565b925050602061184185828601611666565b9150509250929050565b600060208284031215611861576118606115e2565b5b600061186f84828501611630565b91505092915050565b60008115159050919050565b61188d81611878565b82525050565b60006020820190506118a86000830184611884565b92915050565b7f4f6e6c79206261636b656e640000000000000000000000000000000000000000600082015250565b60006118e4600c836116d9565b91506118ef826118ae565b602082019050919050565b60006020820190508181036000830152611913816118d7565b9050919050565b7f496e76616c69642073747564656e740000000000000000000000000000000000600082015250565b6000611950600f836116d9565b915061195b8261191a565b602082019050919050565b6000602082019050818103600083015261197f81611943565b9050919050565b7f496e76616c69642076656e646f72000000000000000000000000000000000000600082015250565b60006119bc600e836116d9565b91506119c782611986565b602082019050919050565b600060208201905081810360008301526119eb816119af565b9050919050565b7f4e487b7100000000000000000000000000000000000000000000000000000000600052601160045260246000fd5b60008160011c9050919050565b6000808291508390505b6001851115611a7857808604811115611a5457611a536119f2565b5b6001851615611a635780820291505b8081029050611a7185611a21565b9450611a38565b94509492505050565b600082611a915760019050611b4d565b81611a9f5760009050611b4d565b8160018114611ab55760028114611abf57611aee565b6001915050611b4d565b60ff841115611ad157611ad06119f2565b5b8360020a915084821115611ae857611ae76119f2565b5b50611b4d565b5060208310610133831016604e8410600b8410161715611b235782820a905083811115611b1e57611b1d6119f2565b5b611b4d565b611b308484846001611a2e565b92509050818404811115611b4757611b466119f2565b5b81810290505b9392505050565b6000611b5f82611645565b9150611b6a836117d4565b9250611b977fffffffffffffffffffffffffffffffffffffffffffffffffffffffffffffffff8484611a81565b905092915050565b6000611baa82611645565b9150611bb583611645565b9250828202611bc381611645565b91508282048414831517611bda57611bd96119f2565b5b5092915050565b7f496e73756666696369656e742062616c616e6365000000000000000000000000600082015250565b6000611c176014836116d9565b9150611c2282611be1565b602082019050919050565b60006020820190508181036000830152611c4681611c0a565b9050919050565b6000611c5882611645565b9150611c6383611645565b9250828203905081811115611c7b57611c7a6119f2565b5b92915050565b6000611c8c82611645565b9150611c9783611645565b9250828201905080821115611caf57611cae6119f2565b5b92915050565b7f4e487b7100000000000000000000000000000000000000000000000000000000600052602260045260246000fd5b60006002820490506001821680611cfc57607f821691505b602082108103611d0f57611d0e611cb5565b5b50919050565b7f4f6e6c792061646d696e00000000000000000000000000000000000000000000600082015250565b6000611d4b600a836116d9565b9150611d5682611d15565b602082019050919050565b60006020820190508181036000830152611d7a81611d3e565b9050919050565b7f4e6f742073747564656e74000000000000000000000000000000000000000000600082015250565b6000611db7600b836116d9565b9150611dc282611d81565b602082019050919050565b60006020820190508181036000830152611de681611daa565b9050919050565b7f496e76616c696420616d6f756e74000000000000000000000000000000000000600082015250565b6000611e23600e836116d9565b9150611e2e82611ded565b602082019050919050565b60006020820190508181036000830152611e5281611e16565b9050919050565b7f496e76616c696420616464726573730000000000000000000000000000000000600082015250565b6000611e8f600f836116d9565b9150611e9a82611e59565b602082019050919050565b60006020820190508181036000830152611ebe81611e82565b9050919050565b7f416c72656164792076656e646f72000000000000000000000000000000000000600082015250565b6000611efb600e836116d9565b9150611f0682611ec5565b602082019050919050565b60006020820190508181036000830152611f2a81611eee565b9050919050565b7f41646d696e20696e73756666696369656e742062616c616e6365000000000000600082015250565b6000611f67601a836116d9565b9150611f7282611f31565b602082019050919050565b60006020820190508181036000830152611f9681611f5a565b9050919050565b7f416c72656164792073747564656e740000000000000000000000000000000000600082015250565b6000611fd3600f836116d9565b9150611fde82611f9d565b602082019050919050565b6000602082019050818103600083015261200281611fc6565b905091905056fea264697066735822122025cc07184c58720d666d9e25a9f3c596964473f9e909096ce3ea75df5366294664736f6c63430008140033",
  "linkReferences": {},
  "deployedLinkReferences": {}
}